:100000000C9434000C9451000C9451000C94510049
:100010000C9451000C9451000C9451000C94150157
:100020000C9451000C9451000C9451000C94C3009A
:100030000C9451000C9451000C9451000C945100FC
:100040000C9451000C9451000C9451000C945100EC
:100050000C9451000C9451000C9451000C945100DC
:100060000C9451000C94510011241FBECFEFD8E026
:10007000DEBFCDBF11E0A0E0B1E0EAE4F9E002C0EC
:1000800005900D92A230B107D9F721E0A2E0B1E0CE
:1000900001C01D92A331B207E1F70E943C010C940C
:1000A000A3040C940000CF93DF9300D000D000D0C5
:1000B000CDB7DEB79A8389837C836B835E834D8360
:1000C00089819A81FC018081282F81E090E00D8058
:1000D00002C0880F991F0A94E2F7822B282F89818A
:1000E0009A81FC0120838B819C81FC018081282FD7
:1000F00081E090E00D8002C0880F991F0A94E2F71A
:100100008227282F8B819C81FC012083000026966A
:100110000FB6F894DEBF0FBECDBFDF91CF9108952B
:10012000CF93DF93CDB7DEB784E690E0FC0120816A
:1001300084E690E0277FFC01208381E890E0FC01C9
:10014000208181E890E02860FC01208381E890E034
:10015000FC01208181E890E02360FC01208388E895
:1001600090E02FE233E0FC01318320838FE690E0C2
:10017000FC0120818FE690E02260FC0120830000DA
:10018000DF91CF9108951F920F920FB60F92112415
:100190002F933F934F935F936F937F938F939F938F
:1001A000AF93BF93EF93FF93CF93DF93CDB7DEB7BA
:1001B0000E945602892B79F00E947002892B59F413
:1001C00040E050E065E270E084E290E00E9453007D
:1001D0000E94AE0216C080E090E088709927892BBB
:1001E00011F088E201C088E090E09770892B982F89
:1001F00088E10FB6F894A895809360000FBE9093A5
:1002000060000000DF91CF91FF91EF91BF91AF911E
:100210009F918F917F916F915F914F913F912F911E
:100220000F900FBE0F901F9018951F920F920FB650
:100230000F9211242F933F938F939F93EF93FF93EC
:10024000CF93DF93CDB7DEB785E290E0FC0130813C
:1002500085E290E024E02327FC0120830000DF9169
:10026000CF91FF91EF919F918F913F912F910F909F
:100270000FBE0F901F901895CF93DF93CDB7DEB7C9
:100280002E970FB6F894DEBF0FBECDBF84E290E08C
:10029000FC01208184E290E02068FC01208361E081
:1002A00070E087E090E00E94D1020E940D030E945E
:1002B00082020E940B020E9490008FE590E0FC01F8
:1002C00080819181A281B3812FE530E08068F901BE
:1002D00080839183A283B38380E090E0A0E2B1E4C5
:1002E00089839A83AB83BC8320E030E04AE753E400
:1002F00069817A818B819C810E940E04DC01CB0193
:100300008D839E83AF83B88720E030E040E85FE3D1
:100310006D817E818F8198850E94880388232CF4CB
:1003200081E090E09A8789873FC020E03FEF4FE768
:1003300057E46D817E818F8198850E94090418168B
:100340004CF520E030E040E251E469817A818B8114
:100350009C810E940E04DC01CB01BC01CD010E94F6
:100360008D03DC01CB019A8789870FC089E190E07A
:100370009C878B878B859C850197F1F79C878B8762
:1003800089859A8501979A87898789859A85892B96
:1003900069F714C06D817E818F8198850E948D03DD
:1003A000DC01CB019A87898789859A859E878D870D
:1003B0008D859E850197F1F79E878D870E94270383
:1003C0008091020190910301A0910401B091050177
:1003D0000196A11DB11D8093020190930301A0938A
:1003E0000401B09305018091020190910301A09155
:1003F0000401B09105010297A105B10508F46CCF85
:100400000E941D0210920201109203011092040139
:100410001092050161CFCF93DF93CDB7DEB781E0B6
:1004200080930001109207011092060181E08093F1
:1004300008010000DF91CF910895CF93DF93CDB7EE
:10044000DEB742E050E06BE270E08AE290E00E94AA
:1004500053008091090190910A01449690930A01FA
:10046000809309018091090190910A0184369105D8
:1004700094F08091060190910701089750F08091C7
:100480000601909107010D9720F481E0809300010F
:1004900002C010920001109207011092060181E043
:1004A000809308010000DF91CF910895CF93DF93EF
:1004B000CDB7DEB780910001DF91CF910895CF9342
:1004C000DF93CDB7DEB780910601909107010196C9
:1004D00090930701809306010000DF91CF9108956A
:1004E000CF93DF93CDB7DEB780910801882329F041
:1004F0001092080180E090E002C081E090E0DF917E
:10050000CF910895CF93DF93CDB7DEB78FE590E01D
:10051000FC0180819181A281B3812FE530E08F774A
:10052000F90180839183A283B38388E19AE0809369
:100530006000909360008FE590E0FC0180819181E4
:10054000A281B3812FE530E08068F9018083918337
:10055000A283B3830000DF91CF910895CF93DF93FF
:10056000CDB7DEB7A8950000DF91CF910895CF9366
:10057000DF93CDB7DEB784E290E0FC01208184E216
:1005800090E02460FC01208385E290E0FC01208162
:1005900085E290E02460FC0120830000DF91CF9190
:1005A0000895CF93DF9300D000D0CDB7DEB79A8304
:1005B00089837C836B838B819C81019799F485E28D
:1005C00090E0FC018081282F81E090E0098002C04A
:1005D000880F991F0A94E2F7282B85E290E0FC012E
:1005E000208313C085E290E0FC018081282F81E008
:1005F00090E0098002C0880F991F0A94E2F7809565
:10060000282385E290E0FC01208300000F900F90EA
:100610000F900F90DF91CF910895CF93DF93CDB7D7
:10062000DEB70E94B70210920B0110920C011092DB
:100630000D0110920E0110920F01109210011092F4
:100640001101109212010000DF91CF910895CF9314
:10065000DF93CDB7DEB740E050E06BE270E08AE2B6
:1006600090E00E94530080910F0190911001A091A1
:100670001101B09112010A96A11DB11D80930F01C5
:1006800090931001A0931101B093120180910F017A
:1006900090911001A0911101B0911201843F9140FD
:1006A000A105B10578F180910B0190910C01A09109
:1006B0000D01B0910E0121E0892B8A2B8B2B09F0C3
:1006C00020E0822F90E0A0E0B0E080930B019093B7
:1006D0000C01A0930D01B0930E0180910B0190913C
:1006E0000C01A0910D01B0910E01BC0182E090E0DF
:1006F0000E94D10210920F0110921001109211016C
:10070000109212010E945F020000DF91CF910895C4
:100710000E94BC0308F481E008950E94E80388F079
:100720009F5798F0B92F9927B751B0F0E1F0660FB5
:10073000771F881F991F1AF0BA95C9F714C0B130F6
:1007400091F00E940204B1E008950C940204672F16
:10075000782F8827B85F39F0B93FCCF38695779525
:100760006795B395D9F73EF490958095709561950E
:100770007F4F8F4F9F4F0895990F0008550FAA0B79
:10078000E0E8FEEF16161706E807F907C0F01216A4
:100790001306E407F50798F0621B730B840B950BA7
:1007A00039F40A2661F0232B242B252B21F40895FC
:1007B0000A2609F4A140A6958FEF811D811D089599
:1007C00057FD9058440F551F59F05F3F71F0479502
:1007D000880F97FB991F61F09F3F79F087950895E7
:1007E000121613061406551FF2CF4695F1DF08C006
:1007F000161617061806991FF1CF86957105610523
:1008000008940895E894BB2766277727CB0197F9CA
:1008100008950E94BC0308F48FEF08950E942104FC
:100820000C9492040E94840438F00E948B0420F0FF
:10083000952311F00C947B040C94810411240C94E6
:1008400003040E94E00370F3959FC1F3950F50E0FD
:10085000551F629FF001729FBB27F00DB11D639F72
:10086000AA27F00DB11DAA1F649F6627B00DA11D18
:10087000661F829F2227B00DA11D621F739FB00DBE
:10088000A11D621F839FA00D611D221F749F33272E
:10089000A00D611D231F849F600D211D822F762FC7
:1008A0006A2F11249F5750409AF0F1F088234AF0A4
:1008B000EE0FFF1FBB1F661F771F881F9150504010
:1008C000A9F79E3F510580F00C947B040C9403041F
:1008D0005F3FE4F3983ED4F3869577956795B79597
:1008E000F795E7959F5FC1F7FE2B880F911D9695B1
:1008F000879597F9089597F99F6780E870E060E021
:1009000008959FEF80EC089500240A9416161706A8
:1009100018060906089500240A94121613061406F0
:1009200005060895092E0394000C11F4882352F053
:10093000BB0F40F4BF2B11F460FF04C06F5F7F4F0B
:0A0940008F4F9F4F0895F894FFCFEA
:02094A000100AA
:00000001FF
